:100000000C9434000C9446000C9446000C9446006A
:100010000C9446000C9446000C9446000C94460048
:100020000C9446000C9446000C9446000C94460038
:100030000C9446000C9446000C9446000C94460028
:100040000C9446000C9446000C9448000C94460016
:100050000C9446000C9446000C9446000C94460008
:100060000C9446000C94460011241FBECFEFD8E03C
:10007000DEBFCDBF21E0A0E0B1E001C01D92A43001
:10008000B207E1F70E94C4000C9440010C940000F8
:100090001F920F920FB60F9211248F938091C6007A
:1000A0008093030181E0809302018F910F900FBE36
:1000B0000F901F90189587E68093C4001092C5009A
:1000C00088E98093C1000895E0ECF0E0908195FF0D
:1000D000FDCF8093C60008950F931F93CF93DF93B6
:1000E000EC018E0189910E946400F80180818111E8
:1000F000F8CFDF91CF911F910F910895CF93DF93A8
:10010000CDB7DEB727970FB6F894DEBF0FBECDBFD1
:100110004AE050E0BE016F5F7F4F0E940B010E94DA
:100120006C0027960FB6F894DEBF0FBECDBFDF91EF
:10013000CF910895ECE7F0E0808180648083EAE766
:10014000F0E08081876880830895ECE7F0E090819B
:100150008F70907F892B8083EAE7F0E08081806454
:100160008083808186FDFDCF80917900809301019D
:10017000E8E7F0E08081809300018081918108951B
:100180008FEF84B915B808950E94C0000E949A00AC
:100190000E945B00789489E40E9464008FE40E94CE
:1001A000640084E50E9464008DE20E94640081E4A2
:1001B0000E94640082E50E9464008DE40E94640055
:1001C00089E50E946400C8E7D0E080E00E94A500B5
:1001D0008C01888199818115924018F42B9A2C9872
:1001E00007C0888199818130924010F02B982C9A19
:1001F0008DE00E9464008AE00E946400C8010E94B1
:100200007E008FEF93EC29E0815090402040E1F791
:1002100000C00000DACF4532510520F4423010F022
:100220000C941601FB011082CB010895BB27FB0142
:100230005527AA27880F991FAA1FA41710F0A41BDF
:1002400083955051B9F7A05DAA3308F0A95DA19339
:10025000009779F7B111B1931192CB010C94300151
:10026000DC01FC01672F71917723E1F7329704C01D
:100270007C916D9370836291AE17BF07C8F30895A8
:04028000F894FFCF20
:00000001FF
