S00B00004144432E7372656351
S11300000C9434000C943E000C943E000C943E007E
S11300100C943E000C943E000C943E000C943E0064
S11300200C943E000C943E000C943E000C943E0054
S11300300C943E000C943E000C943E000C943E0044
S11300400C943E000C943E000C943E000C943E0034
S11300500C943E000C943E000C943E000C943E0024
S11300600C943E000C943E0011241FBECFEFD8E048
S1130070DEBFCDBF0E9440000C945D000C940000D4
S11300808FEF84B987EC80937A0080E480937C00BE
S1130090EAE7F0E0A8E7B0E0808186FDFDCF8D912E
S11300A09C911197811522E0920710F42B98F4CFBC
S11100B08130924088F32B9AEFCFF894FFCF63
S9030000FC
